{
  "_format": "hh-sol-artifact-1",
  "contractName": "EbayChain",
  "sourceName": "contracts/EbayChain.sol",
  "abi": [
    {
      "inputs": [],
      "stateMutability": "nonpayable",
      "type": "constructor"
    },
    {
      "inputs": [
        {
          "internalType": "string",
          "name": "_name",
          "type": "string"
        },
        {
          "internalType": "string",
          "name": "_description",
          "type": "string"
        },
        {
          "internalType": "uint256",
          "name": "_minPrice",
          "type": "uint256"
        },
        {
          "internalType": "uint256",
          "name": "_duration",
          "type": "uint256"
        }
      ],
      "name": "createAuction",
      "outputs": [],
      "stateMutability": "nonpayable",
      "type": "function"
    },
    {
      "inputs": [
        {
          "internalType": "uint256",
          "name": "_auctionId",
          "type": "uint256"
        }
      ],
      "name": "createOffer",
      "outputs": [],
      "stateMutability": "payable",
      "type": "function"
    },
    {
      "inputs": [],
      "name": "getAuctions",
      "outputs": [
        {
          "components": [
            {
              "internalType": "uint256",
              "name": "id",
              "type": "uint256"
            },
            {
              "internalType": "address payable",
              "name": "seller",
              "type": "address"
            },
            {
              "internalType": "string",
              "name": "name",
              "type": "string"
            },
            {
              "internalType": "string",
              "name": "description",
              "type": "string"
            },
            {
              "internalType": "uint256",
              "name": "minPrice",
              "type": "uint256"
            },
            {
              "internalType": "uint256",
              "name": "endDate",
              "type": "uint256"
            },
            {
              "internalType": "uint256",
              "name": "bestOfferId",
              "type": "uint256"
            },
            {
              "internalType": "uint256[]",
              "name": "offerIds",
              "type": "uint256[]"
            }
          ],
          "internalType": "struct EbayChain.Auction[]",
          "name": "",
          "type": "tuple[]"
        }
      ],
      "stateMutability": "view",
      "type": "function"
    },
    {
      "inputs": [
        {
          "internalType": "uint256",
          "name": "_offerId",
          "type": "uint256"
        }
      ],
      "name": "getOffer",
      "outputs": [
        {
          "components": [
            {
              "internalType": "uint256",
              "name": "id",
              "type": "uint256"
            },
            {
              "internalType": "uint256",
              "name": "auctionId",
              "type": "uint256"
            },
            {
              "internalType": "address payable",
              "name": "buyer",
              "type": "address"
            },
            {
              "internalType": "uint256",
              "name": "price",
              "type": "uint256"
            }
          ],
          "internalType": "struct EbayChain.Offer",
          "name": "",
          "type": "tuple"
        }
      ],
      "stateMutability": "view",
      "type": "function"
    },
    {
      "inputs": [
        {
          "internalType": "address",
          "name": "_user",
          "type": "address"
        }
      ],
      "name": "getUserAuctions",
      "outputs": [
        {
          "components": [
            {
              "internalType": "uint256",
              "name": "id",
              "type": "uint256"
            },
            {
              "internalType": "address payable",
              "name": "seller",
              "type": "address"
            },
            {
              "internalType": "string",
              "name": "name",
              "type": "string"
            },
            {
              "internalType": "string",
              "name": "description",
              "type": "string"
            },
            {
              "internalType": "uint256",
              "name": "minPrice",
              "type": "uint256"
            },
            {
              "internalType": "uint256",
              "name": "endDate",
              "type": "uint256"
            },
            {
              "internalType": "uint256",
              "name": "bestOfferId",
              "type": "uint256"
            },
            {
              "internalType": "uint256[]",
              "name": "offerIds",
              "type": "uint256[]"
            }
          ],
          "internalType": "struct EbayChain.Auction[]",
          "name": "",
          "type": "tuple[]"
        }
      ],
      "stateMutability": "view",
      "type": "function"
    },
    {
      "inputs": [
        {
          "internalType": "address",
          "name": "_user",
          "type": "address"
        }
      ],
      "name": "getUserOffers",
      "outputs": [
        {
          "components": [
            {
              "internalType": "uint256",
              "name": "id",
              "type": "uint256"
            },
            {
              "internalType": "uint256",
              "name": "auctionId",
              "type": "uint256"
            },
            {
              "internalType": "address payable",
              "name": "buyer",
              "type": "address"
            },
            {
              "internalType": "uint256",
              "name": "price",
              "type": "uint256"
            }
          ],
          "internalType": "struct EbayChain.Offer[]",
          "name": "",
          "type": "tuple[]"
        }
      ],
      "stateMutability": "view",
      "type": "function"
    },
    {
      "inputs": [
        {
          "internalType": "uint256",
          "name": "_auctionId",
          "type": "uint256"
        }
      ],
      "name": "trade",
      "outputs": [],
      "stateMutability": "nonpayable",
      "type": "function"
    }
  ],
  "bytecode": "0x60806040526001600455600160055534801561001a57600080fd5b50611efa8061002a6000396000f3fe6080604052600436106100705760003560e01c8063a269993d1161004e578063a269993d14610118578063d7c0691914610134578063df1dd8261461015f578063ff3ad0b41461018857610070565b80634579268a1461007557806361e2db55146100b2578063661d2c2c146100db575b600080fd5b34801561008157600080fd5b5061009c600480360381019061009791906114be565b6101c5565b6040516100a991906119f5565b60405180910390f35b3480156100be57600080fd5b506100d960048036038101906100d49190611417565b610266565b005b3480156100e757600080fd5b5061010260048036038101906100fd91906113ea565b610595565b60405161010f9190611913565b60405180910390f35b610132600480360381019061012d91906114be565b610736565b005b34801561014057600080fd5b506101496109c8565b60405161015691906118f1565b60405180910390f35b34801561016b57600080fd5b50610186600480360381019061018191906114be565b610c9e565b005b34801561019457600080fd5b506101af60048036038101906101aa91906113ea565b610eba565b6040516101bc91906118f1565b60405180910390f35b6101cd6111e1565b6001600083815260200190815260200160002060405180608001604052908160008201548152602001600182015481526020016002820160009054906101000a900473ffffffffffffffffffffffffffffffffffffffff1673ffffffffffffffffffffffffffffffffffffffff1673ffffffffffffffffffffffffffffffffffffffff1681526020016003820154815250509050919050565b60008067ffffffffffffffff81111561028257610281611cfb565b5b6040519080825280602002602001820160405280156102b05781602001602082028036833780820191505090505b509050600083116102f6576040517f08c379a00000000000000000000000000000000000000000000000000000000081526004016102ed906119b5565b60405180910390fd5b620151808211801561030a5750620d2f0082105b610349576040517f08c379a000000000000000000000000000000000000000000000000000000000815260040161034090611955565b60405180910390fd5b60405180610100016040528060045481526020013373ffffffffffffffffffffffffffffffffffffffff16815260200188888080601f016020809104026020016040519081016040528093929190818152602001838380828437600081840152601f19601f82011690508083019250505050505050815260200186868080601f016020809104026020016040519081016040528093929190818152602001838380828437600081840152601f19601f820116905080830192505050505050508152602001848152602001834261041f9190611ae8565b8152602001600081526020018281525060008060045481526020019081526020016000206000820151816000015560208201518160010160006101000a81548173ffffffffffffffffffffffffffffffffffffffff021916908373ffffffffffffffffffffffffffffffffffffffff16021790555060408201518160020190805190602001906104b092919061121f565b5060608201518160030190805190602001906104cd92919061121f565b506080820151816004015560a0820151816005015560c0820151816006015560e08201518160070190805190602001906105089291906112a5565b50905050600260003373ffffffffffffffffffffffffffffffffffffffff1673ffffffffffffffffffffffffffffffffffffffff16815260200190815260200160002060045490806001815401808255809150506001900390600052602060002001600090919091909150556004600081548092919061058790611c25565b919050555050505050505050565b60606000600360008473ffffffffffffffffffffffffffffffffffffffff1673ffffffffffffffffffffffffffffffffffffffff16815260200190815260200160002090506000818054905067ffffffffffffffff8111156105fa576105f9611cfb565b5b60405190808252806020026020018201604052801561063357816020015b6106206111e1565b8152602001906001900390816106185790505b50905060005b828054905081101561072b57600083828154811061065a57610659611ccc565b5b906000526020600020015490506001600082815260200190815260200160002060405180608001604052908160008201548152602001600182015481526020016002820160009054906101000a900473ffffffffffffffffffffffffffffffffffffffff1673ffffffffffffffffffffffffffffffffffffffff1673ffffffffffffffffffffffffffffffffffffffff16815260200160038201548152505083838151811061070c5761070b611ccc565b5b602002602001018190525050808061072390611c25565b915050610639565b508092505050919050565b80600081118015610748575060045481105b610787576040517f08c379a000000000000000000000000000000000000000000000000000000000815260040161077e90611995565b60405180910390fd5b60008060008481526020019081526020016000209050600060016000836006015481526020019081526020016000209050816005015442106107fe576040517f08c379a00000000000000000000000000000000000000000000000000000000081526004016107f5906119d5565b60405180910390fd5b816004015434101580156108155750806003015434115b610854576040517f08c379a000000000000000000000000000000000000000000000000000000000815260040161084b90611975565b60405180910390fd5b6005548260060181905550816007016005549080600181540180825580915050600190039060005260206000200160009091909190915055604051806080016040528060055481526020018581526020013373ffffffffffffffffffffffffffffffffffffffff16815260200134815250600160006005548152602001908152602001600020600082015181600001556020820151816001015560408201518160020160006101000a81548173ffffffffffffffffffffffffffffffffffffffff021916908373ffffffffffffffffffffffffffffffffffffffff16021790555060608201518160030155905050600360003373ffffffffffffffffffffffffffffffffffffffff1673ffffffffffffffffffffffffffffffffffffffff1681526020019081526020016000206005549080600181540180825580915050600190039060005260206000200160009091909190915055600560008154809291906109bd90611c25565b919050555050505050565b6060600060016004546109db9190611b3e565b67ffffffffffffffff8111156109f4576109f3611cfb565b5b604051908082528060200260200182016040528015610a2d57816020015b610a1a6112f2565b815260200190600190039081610a125790505b5090506000600190505b600454811015610c965760008082815260200190815260200160002060405180610100016040529081600082015481526020016001820160009054906101000a900473ffffffffffffffffffffffffffffffffffffffff1673ffffffffffffffffffffffffffffffffffffffff1673ffffffffffffffffffffffffffffffffffffffff168152602001600282018054610acf90611bf3565b80601f0160208091040260200160405190810160405280929190818152602001828054610afb90611bf3565b8015610b485780601f10610b1d57610100808354040283529160200191610b48565b820191906000526020600020905b815481529060010190602001808311610b2b57829003601f168201915b50505050508152602001600382018054610b6190611bf3565b80601f0160208091040260200160405190810160405280929190818152602001828054610b8d90611bf3565b8015610bda5780601f10610baf57610100808354040283529160200191610bda565b820191906000526020600020905b815481529060010190602001808311610bbd57829003601f168201915b5050505050815260200160048201548152602001600582015481526020016006820154815260200160078201805480602002602001604051908101604052809291908181526020018280548015610c5057602002820191906000526020600020905b815481526020019060010190808311610c3c575b50505050508152505082600183610c679190611b3e565b81518110610c7857610c77611ccc565b5b60200260200101819052508080610c8e90611c25565b915050610a37565b508091505090565b80600081118015610cb0575060045481105b610cef576040517f08c379a0000000000000000000000000000000000000000000000000000000008152600401610ce690611995565b60405180910390fd5b6000806000848152602001908152602001600020905060006001600083600601548152602001908152602001600020905081600501544211610d66576040517f08c379a0000000000000000000000000000000000000000000000000000000008152600401610d5d90611935565b60405180910390fd5b60005b8260070180549050811015610e44576000836007018281548110610d9057610d8f611ccc565b5b9060005260206000200154905083600601548114610e305760006001600083815260200190815260200160002090508060020160009054906101000a900473ffffffffffffffffffffffffffffffffffffffff1673ffffffffffffffffffffffffffffffffffffffff166108fc82600301549081150290604051600060405180830381858888f19350505050158015610e2d573d6000803e3d6000fd5b50505b508080610e3c90611c25565b915050610d69565b508160010160009054906101000a900473ffffffffffffffffffffffffffffffffffffffff1673ffffffffffffffffffffffffffffffffffffffff166108fc82600301549081150290604051600060405180830381858888f19350505050158015610eb3573d6000803e3d6000fd5b5050505050565b60606000600260008473ffffffffffffffffffffffffffffffffffffffff1673ffffffffffffffffffffffffffffffffffffffff16815260200190815260200160002090506000818054905067ffffffffffffffff811115610f1f57610f1e611cfb565b5b604051908082528060200260200182016040528015610f5857816020015b610f456112f2565b815260200190600190039081610f3d5790505b50905060005b82805490508110156111d6576000838281548110610f7f57610f7e611ccc565b5b9060005260206000200154905060008082815260200190815260200160002060405180610100016040529081600082015481526020016001820160009054906101000a900473ffffffffffffffffffffffffffffffffffffffff1673ffffffffffffffffffffffffffffffffffffffff1673ffffffffffffffffffffffffffffffffffffffff16815260200160028201805461101a90611bf3565b80601f016020809104026020016040519081016040528092919081815260200182805461104690611bf3565b80156110935780601f1061106857610100808354040283529160200191611093565b820191906000526020600020905b81548152906001019060200180831161107657829003601f168201915b505050505081526020016003820180546110ac90611bf3565b80601f01602080910402602001604051908101604052809291908181526020018280546110d890611bf3565b80156111255780601f106110fa57610100808354040283529160200191611125565b820191906000526020600020905b81548152906001019060200180831161110857829003601f168201915b505050505081526020016004820154815260200160058201548152602001600682015481526020016007820180548060200260200160405190810160405280929190818152602001828054801561119b57602002820191906000526020600020905b815481526020019060010190808311611187575b5050505050815250508383815181106111b7576111b6611ccc565b5b60200260200101819052505080806111ce90611c25565b915050610f5e565b508092505050919050565b60405180608001604052806000815260200160008152602001600073ffffffffffffffffffffffffffffffffffffffff168152602001600081525090565b82805461122b90611bf3565b90600052602060002090601f01602090048101928261124d5760008555611294565b82601f1061126657805160ff1916838001178555611294565b82800160010185558215611294579182015b82811115611293578251825591602001919060010190611278565b5b5090506112a1919061134d565b5090565b8280548282559060005260206000209081019282156112e1579160200282015b828111156112e05782518255916020019190600101906112c5565b5b5090506112ee919061134d565b5090565b60405180610100016040528060008152602001600073ffffffffffffffffffffffffffffffffffffffff1681526020016060815260200160608152602001600081526020016000815260200160008152602001606081525090565b5b8082111561136657600081600090555060010161134e565b5090565b60008135905061137981611e96565b92915050565b60008083601f84011261139557611394611d2f565b5b8235905067ffffffffffffffff8111156113b2576113b1611d2a565b5b6020830191508360018202830111156113ce576113cd611d34565b5b9250929050565b6000813590506113e481611ead565b92915050565b600060208284031215611400576113ff611d3e565b5b600061140e8482850161136a565b91505092915050565b6000806000806000806080878903121561143457611433611d3e565b5b600087013567ffffffffffffffff81111561145257611451611d39565b5b61145e89828a0161137f565b9650965050602087013567ffffffffffffffff81111561148157611480611d39565b5b61148d89828a0161137f565b945094505060406114a089828a016113d5565b92505060606114b189828a016113d5565b9150509295509295509295565b6000602082840312156114d4576114d3611d3e565b5b60006114e2848285016113d5565b91505092915050565b60006114f7838361177a565b905092915050565b600061150b8383611838565b60808301905092915050565b600061152383836118e2565b60208301905092915050565b61153881611b84565b82525050565b600061154982611a40565b6115538185611a93565b93508360208202850161156585611a10565b8060005b858110156115a1578484038952815161158285826114eb565b945061158d83611a6c565b925060208a01995050600181019050611569565b50829750879550505050505092915050565b60006115be82611a4b565b6115c88185611aa4565b93506115d383611a20565b8060005b838110156116045781516115eb88826114ff565b97506115f683611a79565b9250506001810190506115d7565b5085935050505092915050565b600061161c82611a56565b6116268185611ab5565b935061163183611a30565b8060005b838110156116625781516116498882611517565b975061165483611a86565b925050600181019050611635565b5085935050505092915050565b600061167a82611a61565b6116848185611ac6565b9350611694818560208601611bc0565b61169d81611d43565b840191505092915050565b60006116b5601783611ad7565b91506116c082611d54565b602082019050919050565b60006116d8602f83611ad7565b91506116e382611d7d565b604082019050919050565b60006116fb602f83611ad7565b915061170682611dcc565b604082019050919050565b600061171e601683611ad7565b915061172982611e1b565b602082019050919050565b6000611741601a83611ad7565b915061174c82611e44565b602082019050919050565b6000611764601383611ad7565b915061176f82611e6d565b602082019050919050565b60006101008301600083015161179360008601826118e2565b5060208301516117a6602086018261152f565b50604083015184820360408601526117be828261166f565b915050606083015184820360608601526117d8828261166f565b91505060808301516117ed60808601826118e2565b5060a083015161180060a08601826118e2565b5060c083015161181360c08601826118e2565b5060e083015184820360e086015261182b8282611611565b9150508091505092915050565b60808201600082015161184e60008501826118e2565b50602082015161186160208501826118e2565b506040820151611874604085018261152f565b50606082015161188760608501826118e2565b50505050565b6080820160008201516118a360008501826118e2565b5060208201516118b660208501826118e2565b5060408201516118c9604085018261152f565b5060608201516118dc60608501826118e2565b50505050565b6118eb81611bb6565b82525050565b6000602082019050818103600083015261190b818461153e565b905092915050565b6000602082019050818103600083015261192d81846115b3565b905092915050565b6000602082019050818103600083015261194e816116a8565b9050919050565b6000602082019050818103600083015261196e816116cb565b9050919050565b6000602082019050818103600083015261198e816116ee565b9050919050565b600060208201905081810360008301526119ae81611711565b9050919050565b600060208201905081810360008301526119ce81611734565b9050919050565b600060208201905081810360008301526119ee81611757565b9050919050565b6000608082019050611a0a600083018461188d565b92915050565b6000819050602082019050919050565b6000819050602082019050919050565b6000819050602082019050919050565b600081519050919050565b600081519050919050565b600081519050919050565b600081519050919050565b6000602082019050919050565b6000602082019050919050565b6000602082019050919050565b600082825260208201905092915050565b600082825260208201905092915050565b600082825260208201905092915050565b600082825260208201905092915050565b600082825260208201905092915050565b6000611af382611bb6565b9150611afe83611bb6565b9250827fffffffffffffffffffffffffffffffffffffffffffffffffffffffffffffffff03821115611b3357611b32611c6e565b5b828201905092915050565b6000611b4982611bb6565b9150611b5483611bb6565b925082821015611b6757611b66611c6e565b5b828203905092915050565b6000611b7d82611b96565b9050919050565b6000611b8f82611b96565b9050919050565b600073ffffffffffffffffffffffffffffffffffffffff82169050919050565b6000819050919050565b60005b83811015611bde578082015181840152602081019050611bc3565b83811115611bed576000848401525b50505050565b60006002820490506001821680611c0b57607f821691505b60208210811415611c1f57611c1e611c9d565b5b50919050565b6000611c3082611bb6565b91507fffffffffffffffffffffffffffffffffffffffffffffffffffffffffffffffff821415611c6357611c62611c6e565b5b600182019050919050565b7f4e487b7100000000000000000000000000000000000000000000000000000000600052601160045260246000fd5b7f4e487b7100000000000000000000000000000000000000000000000000000000600052602260045260246000fd5b7f4e487b7100000000000000000000000000000000000000000000000000000000600052603260045260246000fd5b7f4e487b7100000000000000000000000000000000000000000000000000000000600052604160045260246000fd5b600080fd5b600080fd5b600080fd5b600080fd5b600080fd5b6000601f19601f8301169050919050565b7f41756374696f6e206973207374696c6c20616374697665000000000000000000600082015250565b7f4475726174696f6e206d75737420626520636f6d70726973656420626574776560008201527f656e203120746f20313020646179730000000000000000000000000000000000602082015250565b7f6d73672e76616c7565206d757374206265207375706572696f7220746f206d6960008201527f6e20616e6420626573744f666665720000000000000000000000000000000000602082015250565b7f41756374696f6e20646f6573206e6f7420657869737400000000000000000000600082015250565b7f4d696e206d7573742062652067726561746572207468616e2030000000000000600082015250565b7f41756374696f6e20686173206578706972656400000000000000000000000000600082015250565b611e9f81611b72565b8114611eaa57600080fd5b50565b611eb681611bb6565b8114611ec157600080fd5b5056fea2646970667358221220e66913bd299258c476bb4449fbc330dbe4cbc49bc034218279ed304b65b4b2d764736f6c63430008070033",
  "linkReferences": {},
  "deployedLinkReferences": {}
}